{
  "contractName": "Test",
  "abi": [
    {
      "constant": true,
      "inputs": [
        {
          "name": "msgHash",
          "type": "bytes32"
        },
        {
          "name": "v",
          "type": "uint8"
        },
        {
          "name": "r",
          "type": "bytes32"
        },
        {
          "name": "s",
          "type": "bytes32"
        }
      ],
      "name": "ecrecover1",
      "outputs": [
        {
          "name": "",
          "type": "address"
        }
      ],
      "payable": false,
      "stateMutability": "pure",
      "type": "function"
    },
    {
      "constant": true,
      "inputs": [
        {
          "name": "msgHash",
          "type": "bytes32"
        },
        {
          "name": "v",
          "type": "uint8"
        },
        {
          "name": "r",
          "type": "bytes32"
        },
        {
          "name": "s",
          "type": "bytes32"
        }
      ],
      "name": "ecrecover2",
      "outputs": [
        {
          "name": "",
          "type": "address"
        }
      ],
      "payable": false,
      "stateMutability": "pure",
      "type": "function"
    },
    {
      "constant": false,
      "inputs": [
        {
          "name": "msgHash",
          "type": "bytes32"
        },
        {
          "name": "v",
          "type": "uint8"
        },
        {
          "name": "r",
          "type": "bytes32"
        },
        {
          "name": "s",
          "type": "bytes32"
        }
      ],
      "name": "ecrecover3",
      "outputs": [
        {
          "name": "",
          "type": "address"
        }
      ],
      "payable": false,
      "stateMutability": "nonpayable",
      "type": "function"
    }
  ],
  "bytecode": "0x608060405234801561001057600080fd5b50610462806100206000396000f300608060405260043610610057576000357c0100000000000000000000000000000000000000000000000000000000900463ffffffff1680635b2096151461005c57806387324ef0146100f65780639bf34e3014610190575b600080fd5b34801561006857600080fd5b506100b46004803603810190808035600019169060200190929190803560ff1690602001909291908035600019169060200190929190803560001916906020019092919050505061022a565b604051808273ffffffffffffffffffffffffffffffffffffffff1673ffffffffffffffffffffffffffffffffffffffff16815260200191505060405180910390f35b34801561010257600080fd5b5061014e6004803603810190808035600019169060200190929190803560ff1690602001909291908035600019169060200190929190803560001916906020019092919050505061036a565b604051808273ffffffffffffffffffffffffffffffffffffffff1673ffffffffffffffffffffffffffffffffffffffff16815260200191505060405180910390f35b34801561019c57600080fd5b506101e86004803603810190808035600019169060200190929190803560ff169060200190929190803560001916906020019092919080356000191690602001909291905050506103f7565b604051808273ffffffffffffffffffffffffffffffffffffffff1673ffffffffffffffffffffffffffffffffffffffff16815260200191505060405180910390f35b6000606060006040805190810160405280601c81526020017f19457468657265756d205369676e6564204d6573736167653a0a333200000000815250915081876040518083805190602001908083835b60208310151561029f578051825260208201915060208101905060208303925061027a565b6001836020036101000a03801982511681845116808217855250505050505090500182600019166000191681526020019250505060405180910390209050600181878787604051600081526020016040526040518085600019166000191681526020018460ff1660ff1681526020018360001916600019168152602001826000191660001916815260200194505050505060206040516020810390808403906000865af1158015610354573d6000803e3d6000fd5b5050506020604051035192505050949350505050565b6000600185858585604051600081526020016040526040518085600019166000191681526020018460ff1660ff1681526020018360001916600019168152602001826000191660001916815260200194505050505060206040516020810390808403906000865af11580156103e3573d6000803e3d6000fd5b505050602060405103519050949350505050565b600080600060405187815286602082015285604082015284606082015260208160808360006001610bb8f19250805191505080925050509493505050505600a165627a7a723058202012dfaa4ba7225ee7d74ba917255521fe4c139edea988d0d858c9d532551e1e0029",
  "source": "pragma solidity ^0.4.22;\n\n\ncontract Test {\n\n    function ecrecover1(bytes32 msgHash, uint8 v, bytes32 r, bytes32 s) public pure returns(address) {\n        bytes memory prefix = \"\\x19Ethereum Signed Message:\\n32\";\n        bytes32 prefixedHash = keccak256(prefix, msgHash);\n        return ecrecover(prefixedHash, v, r, s);\n    }\n    \n    function ecrecover2(bytes32 msgHash, uint8 v, bytes32 r, bytes32 s) public pure returns (address) {\n        return ecrecover(msgHash, v, r, s);\n    }\n \n    function ecrecover3(bytes32 msgHash, uint8 v, bytes32 r, bytes32 s) public returns (address) {\n        bool ret;\n        address addr;\n\n        assembly {\n            let size := mload(0x40)\n            mstore(size, msgHash)\n            mstore(add(size, 32), v)\n            mstore(add(size, 64), r)\n            mstore(add(size, 96), s)\n            ret := call(3000, 1, 0, size, 128, size, 32)\n            addr := mload(size)\n        }\n        return addr;\n    }        \n}",
  "sourcePath": "/home/dev-d/Desktop/BlockChain/ForkedProject/contracts/Test.sol",
  "compiler": {
    "name": "solc",
    "version": "0.4.24+commit.e67f0147.Emscripten.clang"
  },
  "schemaVersion": "2.0.1",
  "updatedAt": "2018-10-02T12:57:16.933Z"
}